{
  "contractName": "VotingSystem",
  "abi": [
    {
      "constant": true,
      "inputs": [
        {
          "name": "",
          "type": "uint256"
        }
      ],
      "name": "proposals",
      "outputs": [
        {
          "name": "name",
          "type": "string"
        },
        {
          "name": "voteCount",
          "type": "uint256"
        }
      ],
      "payable": false,
      "stateMutability": "view",
      "type": "function"
    },
    {
      "constant": true,
      "inputs": [],
      "name": "chairperson",
      "outputs": [
        {
          "name": "",
          "type": "address"
        }
      ],
      "payable": false,
      "stateMutability": "view",
      "type": "function"
    },
    {
      "constant": true,
      "inputs": [
        {
          "name": "",
          "type": "address"
        }
      ],
      "name": "voters",
      "outputs": [
        {
          "name": "isRegistered",
          "type": "bool"
        },
        {
          "name": "hasVoted",
          "type": "bool"
        },
        {
          "name": "votedProposalId",
          "type": "uint256"
        }
      ],
      "payable": false,
      "stateMutability": "view",
      "type": "function"
    },
    {
      "inputs": [
        {
          "name": "proposalNames",
          "type": "string[]"
        }
      ],
      "payable": false,
      "stateMutability": "nonpayable",
      "type": "constructor"
    },
    {
      "constant": false,
      "inputs": [],
      "name": "register",
      "outputs": [],
      "payable": false,
      "stateMutability": "nonpayable",
      "type": "function"
    },
    {
      "constant": false,
      "inputs": [
        {
          "name": "proposalId",
          "type": "uint256"
        }
      ],
      "name": "vote",
      "outputs": [],
      "payable": false,
      "stateMutability": "nonpayable",
      "type": "function"
    },
    {
      "constant": true,
      "inputs": [],
      "name": "winningProposal",
      "outputs": [
        {
          "name": "proposalId",
          "type": "uint256"
        }
      ],
      "payable": false,
      "stateMutability": "view",
      "type": "function"
    },
    {
      "constant": true,
      "inputs": [],
      "name": "winningProposalName",
      "outputs": [
        {
          "name": "",
          "type": "string"
        }
      ],
      "payable": false,
      "stateMutability": "view",
      "type": "function"
    }
  ],
  "bytecode": "0x60806040523480156200001157600080fd5b5060405162000f1638038062000f1683398101806040526200003791908101906200032b565b336000806101000a81548173ffffffffffffffffffffffffffffffffffffffff021916908373ffffffffffffffffffffffffffffffffffffffff16021790555060018060008060009054906101000a900473ffffffffffffffffffffffffffffffffffffffff1673ffffffffffffffffffffffffffffffffffffffff1673ffffffffffffffffffffffffffffffffffffffff16815260200190815260200160002060000160006101000a81548160ff02191690831515021790555060008090505b815181101562000197576002604080519081016040528084848151811015156200011e57fe5b90602001906020020151815260200160008152509080600181540180825580915050906001820390600052602060002090600202016000909192909190915060008201518160000190805190602001906200017b9291906200019f565b50602082015181600101555050508080600101915050620000f8565b50506200042a565b828054600181600116156101000203166002900490600052602060002090601f016020900481019282601f10620001e257805160ff191683800117855562000213565b8280016001018555821562000213579182015b8281111562000212578251825591602001919060010190620001f5565b5b50905062000222919062000226565b5090565b6200024b91905b80821115620002475760008160009055506001016200022d565b5090565b90565b600082601f83011215156200026257600080fd5b81516200027962000273826200039e565b62000370565b9150818183526020840193506020810190508360005b83811015620002c35781518601620002a88882620002cd565b8452602084019350602083019250506001810190506200028f565b5050505092915050565b600082601f8301121515620002e157600080fd5b8151620002f8620002f282620003c7565b62000370565b915080825260208301602083018583830111156200031557600080fd5b62000322838284620003f4565b50505092915050565b6000602082840312156200033e57600080fd5b600082015167ffffffffffffffff8111156200035957600080fd5b62000367848285016200024e565b91505092915050565b6000604051905081810181811067ffffffffffffffff821117156200039457600080fd5b8060405250919050565b600067ffffffffffffffff821115620003b657600080fd5b602082029050602081019050919050565b600067ffffffffffffffff821115620003df57600080fd5b601f19601f8301169050602081019050919050565b60005b8381101562000414578082015181840152602081019050620003f7565b8381111562000424576000848401525b50505050565b610adc806200043a6000396000f3fe60806040526004361061007d576000357c0100000000000000000000000000000000000000000000000000000000900480630121b93f14610082578063013cf08b146100ab5780631aa3a008146100e95780632e4176cf146101005780632eba34ac1461012b578063609ff1bd14610156578063a3ec138d14610181575b600080fd5b34801561008e57600080fd5b506100a960048036036100a49190810190610707565b6101c0565b005b3480156100b757600080fd5b506100d260048036036100cd9190810190610707565b61034c565b6040516100e0929190610919565b60405180910390f35b3480156100f557600080fd5b506100fe610417565b005b34801561010c57600080fd5b50610115610505565b60405161012291906108a5565b60405180910390f35b34801561013757600080fd5b5061014061052a565b60405161014d91906108f7565b60405180910390f35b34801561016257600080fd5b5061016b6105f7565b60405161017891906109c9565b60405180910390f35b34801561018d57600080fd5b506101a860048036036101a391908101906106de565b610672565b6040516101b7939291906108c0565b60405180910390f35b6000600160003373ffffffffffffffffffffffffffffffffffffffff1673ffffffffffffffffffffffffffffffffffffffff16815260200190815260200160002090508060000160009054906101000a900460ff161515610256576040517f08c379a000000000000000000000000000000000000000000000000000000000815260040161024d90610989565b60405180910390fd5b8060000160019054906101000a900460ff161515156102aa576040517f08c379a00000000000000000000000000000000000000000000000000000000081526004016102a190610969565b60405180910390fd5b600280549050821015156102f3576040517f08c379a00000000000000000000000000000000000000000000000000000000081526004016102ea906109a9565b60405180910390fd5b60018160000160016101000a81548160ff021916908315150217905550818160010181905550600160028381548110151561032a57fe5b9060005260206000209060020201600101600082825401925050819055505050565b60028181548110151561035b57fe5b9060005260206000209060020201600091509050806000018054600181600116156101000203166002900480601f0160208091040260200160405190810160405280929190818152602001828054600181600116156101000203166002900480156104075780601f106103dc57610100808354040283529160200191610407565b820191906000526020600020905b8154815290600101906020018083116103ea57829003601f168201915b5050505050908060010154905082565b600160003373ffffffffffffffffffffffffffffffffffffffff1673ffffffffffffffffffffffffffffffffffffffff16815260200190815260200160002060000160009054906101000a900460ff161515156104a9576040517f08c379a00000000000000000000000000000000000000000000000000000000081526004016104a090610949565b60405180910390fd5b60018060003373ffffffffffffffffffffffffffffffffffffffff1673ffffffffffffffffffffffffffffffffffffffff16815260200190815260200160002060000160006101000a81548160ff021916908315150217905550565b6000809054906101000a900473ffffffffffffffffffffffffffffffffffffffff1681565b606060006105366105f7565b905060028181548110151561054757fe5b90600052602060002090600202016000018054600181600116156101000203166002900480601f0160208091040260200160405190810160405280929190818152602001828054600181600116156101000203166002900480156105ec5780601f106105c1576101008083540402835291602001916105ec565b820191906000526020600020905b8154815290600101906020018083116105cf57829003601f168201915b505050505091505090565b6000806000905060008090505b60028054905081101561066d578160028281548110151561062157fe5b90600052602060002090600202016001015411156106605760028181548110151561064857fe5b90600052602060002090600202016001015491508092505b8080600101915050610604565b505090565b60016020528060005260406000206000915090508060000160009054906101000a900460ff16908060000160019054906101000a900460ff16908060010154905083565b60006106c28235610a42565b905092915050565b60006106d68235610a54565b905092915050565b6000602082840312156106f057600080fd5b60006106fe848285016106b6565b91505092915050565b60006020828403121561071957600080fd5b6000610727848285016106ca565b91505092915050565b610739816109fa565b82525050565b61074881610a0c565b82525050565b6000610759826109ef565b80845261076d816020860160208601610a5e565b61077681610a91565b602085010191505092915050565b600061078f826109e4565b8084526107a3816020860160208601610a5e565b6107ac81610a91565b602085010191505092915050565b6000601b82527f596f752061726520616c726561647920726567697374657265642e00000000006020830152604082019050919050565b6000601782527f596f75206861766520616c726561647920766f7465642e0000000000000000006020830152604082019050919050565b6000601f82527f596f75206d757374206265207265676973746572656420746f20766f74652e006020830152604082019050919050565b6000601482527f496e76616c69642070726f706f73616c2049442e0000000000000000000000006020830152604082019050919050565b61089f81610a38565b82525050565b60006020820190506108ba6000830184610730565b92915050565b60006060820190506108d5600083018661073f565b6108e2602083018561073f565b6108ef6040830184610896565b949350505050565b60006020820190508181036000830152610911818461074e565b905092915050565b600060408201905081810360008301526109338185610784565b90506109426020830184610896565b9392505050565b60006020820190508181036000830152610962816107ba565b9050919050565b60006020820190508181036000830152610982816107f1565b9050919050565b600060208201905081810360008301526109a281610828565b9050919050565b600060208201905081810360008301526109c28161085f565b9050919050565b60006020820190506109de6000830184610896565b92915050565b600081519050919050565b600081519050919050565b6000610a0582610a18565b9050919050565b60008115159050919050565b600073ffffffffffffffffffffffffffffffffffffffff82169050919050565b6000819050919050565b6000610a4d82610a18565b9050919050565b6000819050919050565b60005b83811015610a7c578082015181840152602081019050610a61565b83811115610a8b576000848401525b50505050565b6000601f19601f830116905091905056fea265627a7a72305820d7727a31cd13f17c61eddfe8d2ba4ce6da37b469ac28ac572a6e17602819c4b56c6578706572696d656e74616cf50037",
  "source": "// SPDX-License-Identifier: MIT\npragma solidity >=0.4.22 <0.9.0;\n\npragma experimental ABIEncoderV2;\n\ncontract VotingSystem {\n    // Structure to represent a voter\n    struct Voter {\n        bool isRegistered;\n        bool hasVoted;\n        uint256 votedProposalId;\n    }\n\n    // Structure to represent a proposal\n    struct Proposal {\n        string name;\n        uint256 voteCount;\n    }\n\n    address public chairperson;\n    mapping(address => Voter) public voters;\n    Proposal[] public proposals;\n\n    // Create a new voting contract with a list of proposal names\n    constructor(string[] memory proposalNames) public {\n        chairperson = msg.sender;\n        voters[chairperson].isRegistered = true;\n\n        for (uint256 i = 0; i < proposalNames.length; i++) {\n            proposals.push(Proposal({name: proposalNames[i], voteCount: 0}));\n        }\n    }\n\n    // Register to vote (open to anyone)\n    function register() public {\n        require(\n            !voters[msg.sender].isRegistered,\n            \"You are already registered.\"\n        );\n        voters[msg.sender].isRegistered = true;\n    }\n\n    // Vote for a proposal\n    function vote(uint256 proposalId) public {\n        Voter storage sender = voters[msg.sender];\n        require(sender.isRegistered, \"You must be registered to vote.\");\n        require(!sender.hasVoted, \"You have already voted.\");\n        require(proposalId < proposals.length, \"Invalid proposal ID.\");\n\n        sender.hasVoted = true;\n        sender.votedProposalId = proposalId;\n        proposals[proposalId].voteCount += 1;\n    }\n\n    // Tally the votes and get the winning proposal\n    function winningProposal() public view returns (uint256 proposalId) {\n        uint256 maxVoteCount = 0;\n        for (uint256 i = 0; i < proposals.length; i++) {\n            if (proposals[i].voteCount > maxVoteCount) {\n                maxVoteCount = proposals[i].voteCount;\n                proposalId = i;\n            }\n        }\n    }\n\n    // Get the name of the winning proposal\n    function winningProposalName() public view returns (string memory) {\n        uint256 proposalId = winningProposal();\n        return proposals[proposalId].name;\n    }\n}\n",
  "sourcePath": "/Users/luizanurnberg/BlockChainGo/contracts/VotingSystem.sol",
  "compiler": {
    "name": "solc",
    "version": "0.5.1+commit.c8a2cb62.Emscripten.clang"
  },
  "schemaVersion": "3.4.16",
  "updatedAt": "2023-11-05T00:34:39.024Z",
  "networkType": "ethereum",
  "devdoc": {
    "methods": {}
  },
  "userdoc": {
    "methods": {}
  }
}