{
  "contractName": "VotingSystem",
  "abi": [
    {
      "inputs": [
        {
          "internalType": "string[]",
          "name": "proposalNames",
          "type": "string[]"
        }
      ],
      "stateMutability": "nonpayable",
      "type": "constructor"
    },
    {
      "inputs": [],
      "name": "chairperson",
      "outputs": [
        {
          "internalType": "address",
          "name": "",
          "type": "address"
        }
      ],
      "stateMutability": "view",
      "type": "function"
    },
    {
      "inputs": [
        {
          "internalType": "uint256",
          "name": "",
          "type": "uint256"
        }
      ],
      "name": "proposals",
      "outputs": [
        {
          "internalType": "string",
          "name": "name",
          "type": "string"
        },
        {
          "internalType": "uint256",
          "name": "voteCount",
          "type": "uint256"
        }
      ],
      "stateMutability": "view",
      "type": "function"
    },
    {
      "inputs": [
        {
          "internalType": "address",
          "name": "",
          "type": "address"
        }
      ],
      "name": "voters",
      "outputs": [
        {
          "internalType": "bool",
          "name": "isRegistered",
          "type": "bool"
        },
        {
          "internalType": "bool",
          "name": "hasVoted",
          "type": "bool"
        },
        {
          "internalType": "uint256",
          "name": "votedProposalId",
          "type": "uint256"
        }
      ],
      "stateMutability": "view",
      "type": "function"
    },
    {
      "inputs": [],
      "name": "register",
      "outputs": [],
      "stateMutability": "nonpayable",
      "type": "function"
    },
    {
      "inputs": [
        {
          "internalType": "uint256",
          "name": "proposalId",
          "type": "uint256"
        }
      ],
      "name": "vote",
      "outputs": [
        {
          "internalType": "bool",
          "name": "",
          "type": "bool"
        },
        {
          "internalType": "bool",
          "name": "",
          "type": "bool"
        },
        {
          "internalType": "uint256",
          "name": "",
          "type": "uint256"
        }
      ],
      "stateMutability": "nonpayable",
      "type": "function"
    },
    {
      "inputs": [],
      "name": "winningProposal",
      "outputs": [
        {
          "internalType": "uint256",
          "name": "proposalId",
          "type": "uint256"
        }
      ],
      "stateMutability": "view",
      "type": "function"
    },
    {
      "inputs": [],
      "name": "winningProposalName",
      "outputs": [
        {
          "internalType": "string",
          "name": "",
          "type": "string"
        }
      ],
      "stateMutability": "view",
      "type": "function"
    },
    {
      "inputs": [],
      "name": "getVoter",
      "outputs": [
        {
          "internalType": "bool",
          "name": "",
          "type": "bool"
        },
        {
          "internalType": "bool",
          "name": "",
          "type": "bool"
        },
        {
          "internalType": "uint256",
          "name": "",
          "type": "uint256"
        }
      ],
      "stateMutability": "view",
      "type": "function"
    }
  ],
  "bytecode": "0x608060405234801562000010575f80fd5b506040516200149d3803806200149d83398181016040528101906200003691906200040e565b335f806101000a81548173ffffffffffffffffffffffffffffffffffffffff021916908373ffffffffffffffffffffffffffffffffffffffff1602179055506001805f805f9054906101000a900473ffffffffffffffffffffffffffffffffffffffff1673ffffffffffffffffffffffffffffffffffffffff1673ffffffffffffffffffffffffffffffffffffffff1681526020019081526020015f205f015f6101000a81548160ff0219169083151502179055505f5b81518110156200018957600260405180604001604052808484815181106200011a57620001196200045d565b5b602002602001015181526020015f815250908060018154018082558091505060019003905f5260205f2090600202015f909190919091505f820151815f019081620001669190620006c1565b5060208201518160010155505080806200018090620007d2565b915050620000ed565b50506200081e565b5f604051905090565b5f80fd5b5f80fd5b5f80fd5b5f601f19601f8301169050919050565b7f4e487b71000000000000000000000000000000000000000000000000000000005f52604160045260245ffd5b620001ee82620001a6565b810181811067ffffffffffffffff8211171562000210576200020f620001b6565b5b80604052505050565b5f6200022462000191565b9050620002328282620001e3565b919050565b5f67ffffffffffffffff821115620002545762000253620001b6565b5b602082029050602081019050919050565b5f80fd5b5f80fd5b5f67ffffffffffffffff8211156200028a5762000289620001b6565b5b6200029582620001a6565b9050602081019050919050565b5f5b83811015620002c1578082015181840152602081019050620002a4565b5f8484015250505050565b5f620002e2620002dc846200026d565b62000219565b90508281526020810184848401111562000301576200030062000269565b5b6200030e848285620002a2565b509392505050565b5f82601f8301126200032d576200032c620001a2565b5b81516200033f848260208601620002cc565b91505092915050565b5f6200035e620003588462000237565b62000219565b9050808382526020820190506020840283018581111562000384576200038362000265565b5b835b81811015620003d257805167ffffffffffffffff811115620003ad57620003ac620001a2565b5b808601620003bc898262000316565b8552602085019450505060208101905062000386565b5050509392505050565b5f82601f830112620003f357620003f2620001a2565b5b81516200040584826020860162000348565b91505092915050565b5f602082840312156200042657620004256200019a565b5b5f82015167ffffffffffffffff8111156200044657620004456200019e565b5b6200045484828501620003dc565b91505092915050565b7f4e487b71000000000000000000000000000000000000000000000000000000005f52603260045260245ffd5b5f81519050919050565b7f4e487b71000000000000000000000000000000000000000000000000000000005f52602260045260245ffd5b5f6002820490506001821680620004d957607f821691505b602082108103620004ef57620004ee62000494565b5b50919050565b5f819050815f5260205f209050919050565b5f6020601f8301049050919050565b5f82821b905092915050565b5f60088302620005537fffffffffffffffffffffffffffffffffffffffffffffffffffffffffffffffff8262000516565b6200055f868362000516565b95508019841693508086168417925050509392505050565b5f819050919050565b5f819050919050565b5f620005a9620005a36200059d8462000577565b62000580565b62000577565b9050919050565b5f819050919050565b620005c48362000589565b620005dc620005d382620005b0565b84845462000522565b825550505050565b5f90565b620005f2620005e4565b620005ff818484620005b9565b505050565b5b8181101562000626576200061a5f82620005e8565b60018101905062000605565b5050565b601f82111562000675576200063f81620004f5565b6200064a8462000507565b810160208510156200065a578190505b62000672620006698562000507565b83018262000604565b50505b505050565b5f82821c905092915050565b5f620006975f19846008026200067a565b1980831691505092915050565b5f620006b1838362000686565b9150826002028217905092915050565b620006cc826200048a565b67ffffffffffffffff811115620006e857620006e7620001b6565b5b620006f48254620004c1565b620007018282856200062a565b5f60209050601f83116001811462000737575f841562000722578287015190505b6200072e8582620006a4565b8655506200079d565b601f1984166200074786620004f5565b5f5b82811015620007705784890151825560018201915060208501945060208101905062000749565b868310156200079057848901516200078c601f89168262000686565b8355505b6001600288020188555050505b505050505050565b7f4e487b71000000000000000000000000000000000000000000000000000000005f52601160045260245ffd5b5f620007de8262000577565b91507fffffffffffffffffffffffffffffffffffffffffffffffffffffffffffffffff8203620008135762000812620007a5565b5b600182019050919050565b610c71806200082c5f395ff3fe608060405234801561000f575f80fd5b5060043610610086575f3560e01c80632e4176cf116100595780632e4176cf146101175780632eba34ac14610135578063609ff1bd14610153578063a3ec138d1461017157610086565b80630121b93f1461008a578063013cf08b146100bc5780631aa3a008146100ed5780632b37f53c146100f7575b5f80fd5b6100a4600480360381019061009f9190610743565b6101a3565b6040516100b393929190610797565b60405180910390f35b6100d660048036038101906100d19190610743565b610360565b6040516100e4929190610856565b60405180910390f35b6100f5610415565b005b6100ff6104f9565b60405161010e93929190610797565b60405180910390f35b61011f61056e565b60405161012c91906108c3565b60405180910390f35b61013d610591565b60405161014a91906108dc565b60405180910390f35b61015b61064d565b60405161016891906108fc565b60405180910390f35b61018b6004803603810190610186919061093f565b6106ce565b60405161019a93929190610797565b60405180910390f35b5f805f8060015f3373ffffffffffffffffffffffffffffffffffffffff1673ffffffffffffffffffffffffffffffffffffffff1681526020019081526020015f209050805f015f9054906101000a900460ff16610235576040517f08c379a000000000000000000000000000000000000000000000000000000000815260040161022c906109b4565b60405180910390fd5b805f0160019054906101000a900460ff1615610286576040517f08c379a000000000000000000000000000000000000000000000000000000000815260040161027d90610a1c565b60405180910390fd5b60028054905085106102cd576040517f08c379a00000000000000000000000000000000000000000000000000000000081526004016102c490610a84565b60405180910390fd5b6001815f0160016101000a81548160ff02191690831515021790555084816001018190555060016002868154811061030857610307610aa2565b5b905f5260205f2090600202016001015f8282546103259190610afc565b92505081905550805f015f9054906101000a900460ff16815f0160019054906101000a900460ff168260010154935093509350509193909250565b6002818154811061036f575f80fd5b905f5260205f2090600202015f91509050805f01805461038e90610b5c565b80601f01602080910402602001604051908101604052809291908181526020018280546103ba90610b5c565b80156104055780601f106103dc57610100808354040283529160200191610405565b820191905f5260205f20905b8154815290600101906020018083116103e857829003601f168201915b5050505050908060010154905082565b60015f3373ffffffffffffffffffffffffffffffffffffffff1673ffffffffffffffffffffffffffffffffffffffff1681526020019081526020015f205f015f9054906101000a900460ff16156104a1576040517f08c379a000000000000000000000000000000000000000000000000000000000815260040161049890610bd6565b60405180910390fd5b6001805f3373ffffffffffffffffffffffffffffffffffffffff1673ffffffffffffffffffffffffffffffffffffffff1681526020019081526020015f205f015f6101000a81548160ff021916908315150217905550565b5f805f8060015f3373ffffffffffffffffffffffffffffffffffffffff1673ffffffffffffffffffffffffffffffffffffffff1681526020019081526020015f209050805f015f9054906101000a900460ff16815f0160019054906101000a900460ff16826001015493509350935050909192565b5f8054906101000a900473ffffffffffffffffffffffffffffffffffffffff1681565b60605f61059c61064d565b9050600281815481106105b2576105b1610aa2565b5b905f5260205f2090600202015f0180546105cb90610b5c565b80601f01602080910402602001604051908101604052809291908181526020018280546105f790610b5c565b80156106425780601f1061061957610100808354040283529160200191610642565b820191905f5260205f20905b81548152906001019060200180831161062557829003601f168201915b505050505091505090565b5f805f90505f5b6002805490508110156106c957816002828154811061067657610675610aa2565b5b905f5260205f2090600202016001015411156106b657600281815481106106a05761069f610aa2565b5b905f5260205f2090600202016001015491508092505b80806106c190610bf4565b915050610654565b505090565b6001602052805f5260405f205f91509050805f015f9054906101000a900460ff1690805f0160019054906101000a900460ff16908060010154905083565b5f80fd5b5f819050919050565b61072281610710565b811461072c575f80fd5b50565b5f8135905061073d81610719565b92915050565b5f602082840312156107585761075761070c565b5b5f6107658482850161072f565b91505092915050565b5f8115159050919050565b6107828161076e565b82525050565b61079181610710565b82525050565b5f6060820190506107aa5f830186610779565b6107b76020830185610779565b6107c46040830184610788565b949350505050565b5f81519050919050565b5f82825260208201905092915050565b5f5b838110156108035780820151818401526020810190506107e8565b5f8484015250505050565b5f601f19601f8301169050919050565b5f610828826107cc565b61083281856107d6565b93506108428185602086016107e6565b61084b8161080e565b840191505092915050565b5f6040820190508181035f83015261086e818561081e565b905061087d6020830184610788565b9392505050565b5f73ffffffffffffffffffffffffffffffffffffffff82169050919050565b5f6108ad82610884565b9050919050565b6108bd816108a3565b82525050565b5f6020820190506108d65f8301846108b4565b92915050565b5f6020820190508181035f8301526108f4818461081e565b905092915050565b5f60208201905061090f5f830184610788565b92915050565b61091e816108a3565b8114610928575f80fd5b50565b5f8135905061093981610915565b92915050565b5f602082840312156109545761095361070c565b5b5f6109618482850161092b565b91505092915050565b7f596f75206d757374206265207265676973746572656420746f20766f74652e005f82015250565b5f61099e601f836107d6565b91506109a98261096a565b602082019050919050565b5f6020820190508181035f8301526109cb81610992565b9050919050565b7f596f75206861766520616c726561647920766f7465642e0000000000000000005f82015250565b5f610a066017836107d6565b9150610a11826109d2565b602082019050919050565b5f6020820190508181035f830152610a33816109fa565b9050919050565b7f496e76616c69642070726f706f73616c2049442e0000000000000000000000005f82015250565b5f610a6e6014836107d6565b9150610a7982610a3a565b602082019050919050565b5f6020820190508181035f830152610a9b81610a62565b9050919050565b7f4e487b71000000000000000000000000000000000000000000000000000000005f52603260045260245ffd5b7f4e487b71000000000000000000000000000000000000000000000000000000005f52601160045260245ffd5b5f610b0682610710565b9150610b1183610710565b9250828201905080821115610b2957610b28610acf565b5b92915050565b7f4e487b71000000000000000000000000000000000000000000000000000000005f52602260045260245ffd5b5f6002820490506001821680610b7357607f821691505b602082108103610b8657610b85610b2f565b5b50919050565b7f596f752061726520616c726561647920726567697374657265642e00000000005f82015250565b5f610bc0601b836107d6565b9150610bcb82610b8c565b602082019050919050565b5f6020820190508181035f830152610bed81610bb4565b9050919050565b5f610bfe82610710565b91507fffffffffffffffffffffffffffffffffffffffffffffffffffffffffffffffff8203610c3057610c2f610acf565b5b60018201905091905056fea2646970667358221220414f63e4303f042257b9d9a879392344d31f6980790100105ee4511c6a3a4b1164736f6c63430008150033",
  "immutableReferences": {},
  "source": "// SPDX-License-Identifier: MIT\npragma solidity ^0.8.0;\n\ncontract VotingSystem {\n    // Structure to represent a voter\n    struct Voter {\n        bool isRegistered;\n        bool hasVoted;\n        uint256 votedProposalId;\n    }\n\n    // Structure to represent a proposal\n    struct Proposal {\n        string name;\n        uint256 voteCount;\n    }\n\n    address public chairperson;\n    mapping(address => Voter) public voters;\n    Proposal[] public proposals;\n\n    // Create a new voting contract with a list of proposal names\n    constructor(string[] memory proposalNames) {\n        chairperson = msg.sender;\n        voters[chairperson].isRegistered = true;\n\n        for (uint256 i = 0; i < proposalNames.length; i++) {\n            proposals.push(Proposal({\n                name: proposalNames[i],\n                voteCount: 0\n            }));\n        }\n    }\n\n    // Register to vote (open to anyone)\n    function register() public {\n        require(!voters[msg.sender].isRegistered, \"You are already registered.\");\n        voters[msg.sender].isRegistered = true;\n    }\n\n\n    // Vote for a proposal\n    function vote(uint256 proposalId) public returns (bool, bool, uint256) {\n        Voter storage sender = voters[msg.sender];\n        require(sender.isRegistered, \"You must be registered to vote.\");\n        require(!sender.hasVoted, \"You have already voted.\");\n        require(proposalId < proposals.length, \"Invalid proposal ID.\");\n\n        sender.hasVoted = true;\n        sender.votedProposalId = proposalId;\n        proposals[proposalId].voteCount += 1;\n        return (sender.isRegistered, sender.hasVoted, sender.votedProposalId);\n    }\n\n    // Tally the votes and get the winning proposal\n    function winningProposal() public view returns (uint256 proposalId) {\n        uint256 maxVoteCount = 0;\n        for (uint256 i = 0; i < proposals.length; i++) {\n            if (proposals[i].voteCount > maxVoteCount) {\n                maxVoteCount = proposals[i].voteCount;\n                proposalId = i;\n            }\n        }\n    }\n\n    // Get the name of the winning proposal\n    function winningProposalName() public view returns (string memory) {\n        uint256 proposalId = winningProposal();\n        return proposals[proposalId].name;\n    }\n\n    function getVoter() public view returns (bool, bool, uint256) {\n        Voter storage sender = voters[msg.sender];\n        return (sender.isRegistered, sender.hasVoted, sender.votedProposalId);\n    }\n}",
  "sourcePath": "/home/luiz/projects/BlockChainGo/smartcontract/contracts/voting.sol",
  "compiler": {
    "name": "solc",
    "version": "0.8.21+commit.d9974bed.Emscripten.clang"
  },
  "schemaVersion": "3.4.16",
  "updatedAt": "2023-11-06T00:06:12.549Z",
  "devdoc": {
    "kind": "dev",
    "methods": {},
    "version": 1
  },
  "userdoc": {
    "kind": "user",
    "methods": {},
    "version": 1
  }
}